{
  "_format": "hh-sol-artifact-1",
  "contractName": "VoterID",
  "sourceName": "contracts/voterID.sol",
  "abi": [
    {
      "inputs": [],
      "stateMutability": "nonpayable",
      "type": "constructor"
    },
    {
      "anonymous": false,
      "inputs": [
        {
          "indexed": false,
          "internalType": "bool",
          "name": "isOpen",
          "type": "bool"
        }
      ],
      "name": "RegistrationStatusChanged",
      "type": "event"
    },
    {
      "anonymous": false,
      "inputs": [
        {
          "indexed": true,
          "internalType": "address",
          "name": "voter",
          "type": "address"
        },
        {
          "indexed": false,
          "internalType": "string",
          "name": "name",
          "type": "string"
        },
        {
          "indexed": false,
          "internalType": "uint256",
          "name": "timestamp",
          "type": "uint256"
        }
      ],
      "name": "VoterRegistered",
      "type": "event"
    },
    {
      "anonymous": false,
      "inputs": [
        {
          "indexed": true,
          "internalType": "address",
          "name": "voter",
          "type": "address"
        },
        {
          "indexed": false,
          "internalType": "uint256",
          "name": "timestamp",
          "type": "uint256"
        }
      ],
      "name": "VoterVerified",
      "type": "event"
    },
    {
      "inputs": [],
      "name": "admin",
      "outputs": [
        {
          "internalType": "address",
          "name": "",
          "type": "address"
        }
      ],
      "stateMutability": "view",
      "type": "function"
    },
    {
      "inputs": [
        {
          "internalType": "address",
          "name": "_voter",
          "type": "address"
        }
      ],
      "name": "checkVoterStatus",
      "outputs": [
        {
          "internalType": "bool",
          "name": "",
          "type": "bool"
        }
      ],
      "stateMutability": "view",
      "type": "function"
    },
    {
      "inputs": [
        {
          "internalType": "address",
          "name": "_voter",
          "type": "address"
        }
      ],
      "name": "getVoterDetails",
      "outputs": [
        {
          "internalType": "string",
          "name": "name",
          "type": "string"
        },
        {
          "internalType": "uint256",
          "name": "dob",
          "type": "uint256"
        },
        {
          "internalType": "bool",
          "name": "isVerified",
          "type": "bool"
        },
        {
          "internalType": "string",
          "name": "residentialAddress",
          "type": "string"
        },
        {
          "internalType": "uint256",
          "name": "registrationTimestamp",
          "type": "uint256"
        },
        {
          "internalType": "uint256",
          "name": "lastVerifiedTimestamp",
          "type": "uint256"
        }
      ],
      "stateMutability": "view",
      "type": "function"
    },
    {
      "inputs": [
        {
          "internalType": "string",
          "name": "_name",
          "type": "string"
        },
        {
          "internalType": "uint256",
          "name": "_dob",
          "type": "uint256"
        },
        {
          "internalType": "string",
          "name": "_voterIdHash",
          "type": "string"
        },
        {
          "internalType": "string",
          "name": "_aadharNumber",
          "type": "string"
        },
        {
          "internalType": "string",
          "name": "_residentialAddress",
          "type": "string"
        }
      ],
      "name": "registerVoter",
      "outputs": [],
      "stateMutability": "nonpayable",
      "type": "function"
    },
    {
      "inputs": [],
      "name": "registrationOpen",
      "outputs": [
        {
          "internalType": "bool",
          "name": "",
          "type": "bool"
        }
      ],
      "stateMutability": "view",
      "type": "function"
    },
    {
      "inputs": [
        {
          "internalType": "bool",
          "name": "_isOpen",
          "type": "bool"
        }
      ],
      "name": "setRegistrationStatus",
      "outputs": [],
      "stateMutability": "nonpayable",
      "type": "function"
    },
    {
      "inputs": [
        {
          "internalType": "address",
          "name": "_newAdmin",
          "type": "address"
        }
      ],
      "name": "transferAdmin",
      "outputs": [],
      "stateMutability": "nonpayable",
      "type": "function"
    },
    {
      "inputs": [
        {
          "internalType": "address",
          "name": "_voter",
          "type": "address"
        }
      ],
      "name": "verifyVoter",
      "outputs": [],
      "stateMutability": "nonpayable",
      "type": "function"
    },
    {
      "inputs": [],
      "name": "voterCount",
      "outputs": [
        {
          "internalType": "uint256",
          "name": "",
          "type": "uint256"
        }
      ],
      "stateMutability": "view",
      "type": "function"
    },
    {
      "inputs": [
        {
          "internalType": "address",
          "name": "",
          "type": "address"
        }
      ],
      "name": "voters",
      "outputs": [
        {
          "internalType": "string",
          "name": "name",
          "type": "string"
        },
        {
          "internalType": "uint256",
          "name": "dob",
          "type": "uint256"
        },
        {
          "internalType": "string",
          "name": "voterIdHash",
          "type": "string"
        },
        {
          "internalType": "bool",
          "name": "isVerified",
          "type": "bool"
        },
        {
          "internalType": "string",
          "name": "aadharNumber",
          "type": "string"
        },
        {
          "internalType": "string",
          "name": "residentialAddress",
          "type": "string"
        },
        {
          "internalType": "uint256",
          "name": "registrationTimestamp",
          "type": "uint256"
        },
        {
          "internalType": "uint256",
          "name": "lastVerifiedTimestamp",
          "type": "uint256"
        }
      ],
      "stateMutability": "view",
      "type": "function"
    }
  ],
  "bytecode": "0x6080604052348015600f57600080fd5b5033600360006101000a81548173ffffffffffffffffffffffffffffffffffffffff021916908373ffffffffffffffffffffffffffffffffffffffff1602179055506001600560006101000a81548160ff0219169083151502179055506000600481905550611dbc806100836000396000f3fe608060405234801561001057600080fd5b506004361061009e5760003560e01c806375829def1161006657806375829def14610147578063a3ec138d14610163578063ba71bef01461019a578063d47208ee146101cf578063f851a440146101eb5761009e565b806301222f63146100a357806309bd0950146100bf5780630eaf4d9c146100db57806342169e481461010b578063736f88cd14610129575b600080fd5b6100bd60048036038101906100b89190611221565b610209565b005b6100d960048036038101906100d4919061136a565b6105b1565b005b6100f560048036038101906100f0919061136a565b610851565b60405161010291906113b2565b60405180910390f35b6101136108a9565b60405161012091906113dc565b60405180910390f35b6101316108af565b60405161013e91906113b2565b60405180910390f35b610161600480360381019061015c919061136a565b6108c2565b005b61017d6004803603810190610178919061136a565b610a05565b604051610191989796959493929190611476565b60405180910390f35b6101b460048036038101906101af919061136a565b610c7a565b6040516101c696959493929190611510565b60405180910390f35b6101e960048036038101906101e491906115ab565b610f87565b005b6101f361106b565b60405161020091906115e7565b60405180910390f35b600560009054906101000a900460ff16610258576040517f08c379a000000000000000000000000000000000000000000000000000000000815260040161024f90611674565b60405180910390fd5b60008060003373ffffffffffffffffffffffffffffffffffffffff1673ffffffffffffffffffffffffffffffffffffffff16815260200190815260200160002060020180546102a6906116c3565b9050146102e8576040517f08c379a00000000000000000000000000000000000000000000000000000000081526004016102df90611740565b60405180910390fd5b6001826040516102f8919061179c565b908152602001604051809103902060009054906101000a900460ff1615610354576040517f08c379a000000000000000000000000000000000000000000000000000000000815260040161034b906117ff565b60405180910390fd5b600283604051610364919061179c565b908152602001604051809103902060009054906101000a900460ff16156103c0576040517f08c379a00000000000000000000000000000000000000000000000000000000081526004016103b79061186b565b60405180910390fd5b600180836040516103d1919061179c565b908152602001604051809103902060006101000a81548160ff0219169083151502179055506001600284604051610408919061179c565b908152602001604051809103902060006101000a81548160ff02191690831515021790555060405180610100016040528086815260200185815260200184815260200160001515815260200183815260200182815260200142815260200160008152506000803373ffffffffffffffffffffffffffffffffffffffff1673ffffffffffffffffffffffffffffffffffffffff16815260200190815260200160002060008201518160000190816104be9190611a37565b506020820151816001015560408201518160020190816104de9190611a37565b5060608201518160030160006101000a81548160ff02191690831515021790555060808201518160040190816105149190611a37565b5060a082015181600501908161052a9190611a37565b5060c0820151816006015560e082015181600701559050506004600081548092919061055590611b38565b91905055503373ffffffffffffffffffffffffffffffffffffffff167f1e7da607cf8e31513f12bb72316d891a5541379aaebc20ba1822516065b8e1dd86426040516105a2929190611b80565b60405180910390a25050505050565b600360009054906101000a900473ffffffffffffffffffffffffffffffffffffffff1673ffffffffffffffffffffffffffffffffffffffff163373ffffffffffffffffffffffffffffffffffffffff1614610641576040517f08c379a000000000000000000000000000000000000000000000000000000000815260040161063890611c22565b60405180910390fd5b60008060008373ffffffffffffffffffffffffffffffffffffffff1673ffffffffffffffffffffffffffffffffffffffff168152602001908152602001600020600201805461068f906116c3565b9050116106d1576040517f08c379a00000000000000000000000000000000000000000000000000000000081526004016106c890611c8e565b60405180910390fd5b6000808273ffffffffffffffffffffffffffffffffffffffff1673ffffffffffffffffffffffffffffffffffffffff16815260200190815260200160002060030160009054906101000a900460ff1615610760576040517f08c379a000000000000000000000000000000000000000000000000000000000815260040161075790611cfa565b60405180910390fd5b60016000808373ffffffffffffffffffffffffffffffffffffffff1673ffffffffffffffffffffffffffffffffffffffff16815260200190815260200160002060030160006101000a81548160ff021916908315150217905550426000808373ffffffffffffffffffffffffffffffffffffffff1673ffffffffffffffffffffffffffffffffffffffff168152602001908152602001600020600701819055508073ffffffffffffffffffffffffffffffffffffffff167f945486efe706b7939911cd647343f3c1118cd63847a1f1b3d5a06b05120a5bcd4260405161084691906113dc565b60405180910390a250565b60008060008373ffffffffffffffffffffffffffffffffffffffff1673ffffffffffffffffffffffffffffffffffffffff16815260200190815260200160002060030160009054906101000a900460ff169050919050565b60045481565b600560009054906101000a900460ff1681565b600360009054906101000a900473ffffffffffffffffffffffffffffffffffffffff1673ffffffffffffffffffffffffffffffffffffffff163373ffffffffffffffffffffffffffffffffffffffff1614610952576040517f08c379a000000000000000000000000000000000000000000000000000000000815260040161094990611c22565b60405180910390fd5b600073ffffffffffffffffffffffffffffffffffffffff168173ffffffffffffffffffffffffffffffffffffffff16036109c1576040517f08c379a00000000000000000000000000000000000000000000000000000000081526004016109b890611d66565b60405180910390fd5b80600360006101000a81548173ffffffffffffffffffffffffffffffffffffffff021916908373ffffffffffffffffffffffffffffffffffffffff16021790555050565b6000602052806000526040600020600091509050806000018054610a28906116c3565b80601f0160208091040260200160405190810160405280929190818152602001828054610a54906116c3565b8015610aa15780601f10610a7657610100808354040283529160200191610aa1565b820191906000526020600020905b815481529060010190602001808311610a8457829003601f168201915b505050505090806001015490806002018054610abc906116c3565b80601f0160208091040260200160405190810160405280929190818152602001828054610ae8906116c3565b8015610b355780601f10610b0a57610100808354040283529160200191610b35565b820191906000526020600020905b815481529060010190602001808311610b1857829003601f168201915b5050505050908060030160009054906101000a900460ff1690806004018054610b5d906116c3565b80601f0160208091040260200160405190810160405280929190818152602001828054610b89906116c3565b8015610bd65780601f10610bab57610100808354040283529160200191610bd6565b820191906000526020600020905b815481529060010190602001808311610bb957829003601f168201915b505050505090806005018054610beb906116c3565b80601f0160208091040260200160405190810160405280929190818152602001828054610c17906116c3565b8015610c645780601f10610c3957610100808354040283529160200191610c64565b820191906000526020600020905b815481529060010190602001808311610c4757829003601f168201915b5050505050908060060154908060070154905088565b6060600080606060008060008060008973ffffffffffffffffffffffffffffffffffffffff1673ffffffffffffffffffffffffffffffffffffffff16815260200190815260200160002060405180610100016040529081600082018054610ce0906116c3565b80601f0160208091040260200160405190810160405280929190818152602001828054610d0c906116c3565b8015610d595780601f10610d2e57610100808354040283529160200191610d59565b820191906000526020600020905b815481529060010190602001808311610d3c57829003601f168201915b5050505050815260200160018201548152602001600282018054610d7c906116c3565b80601f0160208091040260200160405190810160405280929190818152602001828054610da8906116c3565b8015610df55780601f10610dca57610100808354040283529160200191610df5565b820191906000526020600020905b815481529060010190602001808311610dd857829003601f168201915b505050505081526020016003820160009054906101000a900460ff16151515158152602001600482018054610e29906116c3565b80601f0160208091040260200160405190810160405280929190818152602001828054610e55906116c3565b8015610ea25780601f10610e7757610100808354040283529160200191610ea2565b820191906000526020600020905b815481529060010190602001808311610e8557829003601f168201915b50505050508152602001600582018054610ebb906116c3565b80601f0160208091040260200160405190810160405280929190818152602001828054610ee7906116c3565b8015610f345780601f10610f0957610100808354040283529160200191610f34565b820191906000526020600020905b815481529060010190602001808311610f1757829003601f168201915b505050505081526020016006820154815260200160078201548152505090508060000151816020015182606001518360a001518460c001518560e001519650965096509650965096505091939550919395565b600360009054906101000a900473ffffffffffffffffffffffffffffffffffffffff1673ffffffffffffffffffffffffffffffffffffffff163373ffffffffffffffffffffffffffffffffffffffff1614611017576040517f08c379a000000000000000000000000000000000000000000000000000000000815260040161100e90611c22565b60405180910390fd5b80600560006101000a81548160ff0219169083151502179055507f1a30f630d0950ddfc90d43ec4e405fd012ddb4ba669dd2bd5e95439631c4221f8160405161106091906113b2565b60405180910390a150565b600360009054906101000a900473ffffffffffffffffffffffffffffffffffffffff1681565b6000604051905090565b600080fd5b600080fd5b600080fd5b600080fd5b6000601f19601f8301169050919050565b7f4e487b7100000000000000000000000000000000000000000000000000000000600052604160045260246000fd5b6110f8826110af565b810181811067ffffffffffffffff82111715611117576111166110c0565b5b80604052505050565b600061112a611091565b905061113682826110ef565b919050565b600067ffffffffffffffff821115611156576111556110c0565b5b61115f826110af565b9050602081019050919050565b82818337600083830152505050565b600061118e6111898461113b565b611120565b9050828152602081018484840111156111aa576111a96110aa565b5b6111b584828561116c565b509392505050565b600082601f8301126111d2576111d16110a5565b5b81356111e284826020860161117b565b91505092915050565b6000819050919050565b6111fe816111eb565b811461120957600080fd5b50565b60008135905061121b816111f5565b92915050565b600080600080600060a0868803121561123d5761123c61109b565b5b600086013567ffffffffffffffff81111561125b5761125a6110a0565b5b611267888289016111bd565b95505060206112788882890161120c565b945050604086013567ffffffffffffffff811115611299576112986110a0565b5b6112a5888289016111bd565b935050606086013567ffffffffffffffff8111156112c6576112c56110a0565b5b6112d2888289016111bd565b925050608086013567ffffffffffffffff8111156112f3576112f26110a0565b5b6112ff888289016111bd565b9150509295509295909350565b600073ffffffffffffffffffffffffffffffffffffffff82169050919050565b60006113378261130c565b9050919050565b6113478161132c565b811461135257600080fd5b50565b6000813590506113648161133e565b92915050565b6000602082840312156113805761137f61109b565b5b600061138e84828501611355565b91505092915050565b60008115159050919050565b6113ac81611397565b82525050565b60006020820190506113c760008301846113a3565b92915050565b6113d6816111eb565b82525050565b60006020820190506113f160008301846113cd565b92915050565b600081519050919050565b600082825260208201905092915050565b60005b83811015611431578082015181840152602081019050611416565b60008484015250505050565b6000611448826113f7565b6114528185611402565b9350611462818560208601611413565b61146b816110af565b840191505092915050565b6000610100820190508181036000830152611491818b61143d565b90506114a0602083018a6113cd565b81810360408301526114b2818961143d565b90506114c160608301886113a3565b81810360808301526114d3818761143d565b905081810360a08301526114e7818661143d565b90506114f660c08301856113cd565b61150360e08301846113cd565b9998505050505050505050565b600060c082019050818103600083015261152a818961143d565b905061153960208301886113cd565b61154660408301876113a3565b8181036060830152611558818661143d565b905061156760808301856113cd565b61157460a08301846113cd565b979650505050505050565b61158881611397565b811461159357600080fd5b50565b6000813590506115a58161157f565b92915050565b6000602082840312156115c1576115c061109b565b5b60006115cf84828501611596565b91505092915050565b6115e18161132c565b82525050565b60006020820190506115fc60008301846115d8565b92915050565b7f566f74657220726567697374726174696f6e2069732063757272656e746c792060008201527f636c6f7365640000000000000000000000000000000000000000000000000000602082015250565b600061165e602683611402565b915061166982611602565b604082019050919050565b6000602082019050818103600083015261168d81611651565b9050919050565b7f4e487b7100000000000000000000000000000000000000000000000000000000600052602260045260246000fd5b600060028204905060018216806116db57607f821691505b6020821081036116ee576116ed611694565b5b50919050565b7f416c726561647920726567697374657265640000000000000000000000000000600082015250565b600061172a601283611402565b9150611735826116f4565b602082019050919050565b600060208201905081810360008301526117598161171d565b9050919050565b600081905092915050565b6000611776826113f7565b6117808185611760565b9350611790818560208601611413565b80840191505092915050565b60006117a8828461176b565b915081905092915050565b7f416164686172206e756d62657220616c72656164792072656769737465726564600082015250565b60006117e9602083611402565b91506117f4826117b3565b602082019050919050565b60006020820190508181036000830152611818816117dc565b9050919050565b7f566f74657220494420616c726561647920726567697374657265640000000000600082015250565b6000611855601b83611402565b91506118608261181f565b602082019050919050565b6000602082019050818103600083015261188481611848565b9050919050565b60008190508160005260206000209050919050565b60006020601f8301049050919050565b600082821b905092915050565b6000600883026118ed7fffffffffffffffffffffffffffffffffffffffffffffffffffffffffffffffff826118b0565b6118f786836118b0565b95508019841693508086168417925050509392505050565b6000819050919050565b600061193461192f61192a846111eb565b61190f565b6111eb565b9050919050565b6000819050919050565b61194e83611919565b61196261195a8261193b565b8484546118bd565b825550505050565b600090565b61197761196a565b611982818484611945565b505050565b5b818110156119a65761199b60008261196f565b600181019050611988565b5050565b601f8211156119eb576119bc8161188b565b6119c5846118a0565b810160208510156119d4578190505b6119e86119e0856118a0565b830182611987565b50505b505050565b600082821c905092915050565b6000611a0e600019846008026119f0565b1980831691505092915050565b6000611a2783836119fd565b9150826002028217905092915050565b611a40826113f7565b67ffffffffffffffff811115611a5957611a586110c0565b5b611a6382546116c3565b611a6e8282856119aa565b600060209050601f831160018114611aa15760008415611a8f578287015190505b611a998582611a1b565b865550611b01565b601f198416611aaf8661188b565b60005b82811015611ad757848901518255600182019150602085019450602081019050611ab2565b86831015611af45784890151611af0601f8916826119fd565b8355505b6001600288020188555050505b505050505050565b7f4e487b7100000000000000000000000000000000000000000000000000000000600052601160045260246000fd5b6000611b43826111eb565b91507fffffffffffffffffffffffffffffffffffffffffffffffffffffffffffffffff8203611b7557611b74611b09565b5b600182019050919050565b60006040820190508181036000830152611b9a818561143d565b9050611ba960208301846113cd565b9392505050565b7f4f6e6c792061646d696e2063616e20706572666f726d2074686973206163746960008201527f6f6e000000000000000000000000000000000000000000000000000000000000602082015250565b6000611c0c602283611402565b9150611c1782611bb0565b604082019050919050565b60006020820190508181036000830152611c3b81611bff565b9050919050565b7f566f746572206e6f742072656769737465726564000000000000000000000000600082015250565b6000611c78601483611402565b9150611c8382611c42565b602082019050919050565b60006020820190508181036000830152611ca781611c6b565b9050919050565b7f566f74657220616c726561647920766572696669656400000000000000000000600082015250565b6000611ce4601683611402565b9150611cef82611cae565b602082019050919050565b60006020820190508181036000830152611d1381611cd7565b9050919050565b7f496e76616c696420616464726573730000000000000000000000000000000000600082015250565b6000611d50600f83611402565b9150611d5b82611d1a565b602082019050919050565b60006020820190508181036000830152611d7f81611d43565b905091905056fea2646970667358221220a0b6c95a1f5d8a65e6839227ecfdbc0525fe058e60eac6b60bbb5951cf868ccd64736f6c634300081c0033",
  "linkReferences": {},
  "deployedLinkReferences": {}
}